:1012D0006E756D3A25640000007F4141417F00003A
:1012E0000021617F01010000004F49494979000058
:1012F00000494949497F000000780808087F00003C
:1013000000794949494F0000007F4949494F000091
:1013100000404040407F0000007F4949497F000075
:1013200000794949497F00217F01007F41417F21A8
:101330007F0100217F0100217F01004F4949792170
:101340007F01004949497F217F01007808087F21FA
:101350007F01007949494F217F01007F49494F2191
:101360007F01014040407F217F01007F49497F216B
:101370007F01007F49497F4F4979007F41417F4F7D
:1013800049790000217F014F4979004F4949794F40
:101390004979004949497F4F4979007808087F4FCA
:1013A0004979007949494F4F4979007F49494F4F61
:1013B0004979007F49497F4F4979007949497F49F7
:0713C000497F007F41417FDE
:10171B0041005C0142006D000042005D000142008F
:10172B0067000042006B0000420047000042004986
:0C173B00000042004B000042004D000086
:0C1B3300C2AC8F993099FDC299D2AC224F
:05000600AE07021B33F0
:10117900E4900038F0A3F0C290121AF17FE87E03E0
:1011890012000E7FF4121AA9121ADA121B7F121A10
:10119900DA7F01121833900059EFF07418F0121524
:1011A900E7900066EFF0602BE0FFB4010A90006B56
:1011B900E4F0A304F0801CEFB4020B90006BE4F0A0
:1011C900A37402F0800DEFB4030990006BE4F0A35F
:1011D9007403F0900067E07004A3E0640170BF90AD
:1011E900006BE07004A3E064017016900059E0FB05
:1011F9007A009000407403F07D017F01121A598032
:101209009D90006BE07004A3E06402600302129CED
:0C12190090006BE07004A3E0640270829F
:10122500900059E0FF90003AE4F0A3EFF0121BAEF6
:10123500E4900037F0900037E0FDFFC00790003ADA
:10124500E0FEA3E07803C333CE33CED8F97C002D7E
:10125500FFEC3EFE74D72FF58274123EF583E493BE
:10126500FDD00712199F900037E004F0E0C3940801
:1012750040C3900039E004F0E0D3943C4002E4F030
:101285001215E7900066EFF0608AE0FF90006BE4CE
:07129500F0A3EFF00211A726
:10129C0090006BE07004A3E0640370030211A7904C
:1012AC000059E075F00A84FD7C007F011215019055
:1012BC000059E075F00A84E5F0FD7C007F02121500
:0412CC00010211A763
:1019580090005CE0601D90005BE004F0E0C3941828
:101968004011E4F0900059E014F0E0D394005003E3
:041978007418F022CD
:03000B00020B865F
:100B8600C0E0C0F0C083C082C0D075D000C000C035
:0D0B960001C002C003C004C005C006C007B6
:100BA300758A18758CFC9000ACE0FFC4540F248345
:100BB300F582E43400F583E090005FF0EF540F24F6
:100BC30083F582E43400F583E0900060F0A374764B
:100BD300F0900048E004F07006900047E004F090C5
:100BE300004AE004F07006900049E004F0D390005E
:100BF30048E0940A900047E094004076121B2612C6
:100C0300186F9000621206B190006BE07004A3E0CD
:100C130064037057D390004AE094C8900049E0946D
:030C230000404846
:100C2600900059E0FF7E00900000EEF0A3EFF090F8
:100C3600006DE07003A3E06F60187BFF7A1279D035
:100C4600900000E0FFA3E0900005CFF0A3EFF012C4
:100C5600076E900000E0FFA3E090006DCFF0A3EFD9
:080C6600F0900049E4F0A3F056
:100C6E00900047E4F0A3F090004CE004F070069082
:100C7E00004BE004F0C390004CE0941490004BE065
:100C8E0094004064E4F0A3F090005FE0643F70379E
:100C9E00A3E0B43932900067E4F0A3F090005DF069
:100CAE00A304F0E4FFFE7DE07C41900062E0F8A337
:100CBE00E0F9A3E0FAA3E0FB1201CC4006D290B219
:100CCE00A58004C290C2A590005FE0B4061AA3E00E
:100CDE00B47F1590005DE4F0A3F0900067F0A304DC
:100CEE00F0C290C2A512195890005DE07004A3E006
:100CFE0064016003020E06FBFA79207841900062CF
:100D0E00E0FCA3E0FDA3E0FEA3E0FF12012F120220
:100D1E008390004FEEF0A3EFF0900062E0FCA3E0B2
:100D2E00FDA3E0FEA3E0FF1202837C007D0A120603
:100D3E006D900051ECF0A3EDF0E4FFFE7D207C41C0
:100D4E00900062E0F8A3E0F9A3E0FAA3E0FB120042
:100D5E00261202837C007D0A12066D900053ECF081
:100D6E00A3EDF0E4FFFE7DC87C42900062E0F8A3A4
:100D7E00E0F9A3E0FAA3E0FB1200261202837C0046
:100D8E007D0A12066D900055ECF0A3EDF0E4FFFE27
:100D9E007D7A7C44900062E0F8A3E0F9A3E0FAA328
:100DAE00E0FB1200261202837C007D0A12066D9073
:100DBE000057ECF0A3EDF090004FE0FCA3E0FD7FB8
:100DCE0001121501900051E0FCA3E0FD7F02121507
:100DDE0074900053E0FCA3E0FD7F03121501900018
:100DEE0055E0FCA3E0FD7F04121501900057E0FCD6
:080DFE00A3E0FD7F05121501C1
:100E0600D007D006D005D004D003D002D001D00040
:0B0E1600D0D0D082D083D0F0D0E032EA
:030023000219C1FE
:0919C100C0E0C083C08230981020
:1019CA00C29890004EE004F0700690004DE004F0DA
:0719DA00D082D083D0E0327F
:101AA90075985043878053890F438920C28FD28EFE
:091AB9008F8D8F8BD2ACD2AF22CD
:081B91008F993099FDC29922E1
:02165900AD07DB
:10165B00E49000B4F0A3F0C2B6C2B5FB7E00748078
:10166B00A803088006CEA2E713CE13D8F8FFEDF53A
:10167B0082EF558224FF92B4D2B6C2B60BEBB408FC
:10168B00DBE4FBD2B6C2B630B71A7E80E4A80308FF
:10169B008005CEC313CE13D8F9FF9000B4E04EF003
:1016AB00A3E04FF00BEBB410DAD2B59000B4E0FF2F
:0216BB007E00AF
:0116BD00220A
:101ADA005389F0438901758C4CE4F58AC28DD28C06
:071AEA00D2A9D2AFC2B9225C
:0C1B3F00AD07AC06ECF58CAF058F8A22D8
:091B7600AF8CEFFEAD8AEDFF22F9
:061BA800EF24FF928C22E5
:10000E00EF4E600F7D027CC7DCFEDDFCEF1F70F053
:03001E001E80ED54
:0100210022BC
:061B1700C2A58F80D2A7D9
:081B1D007F027EEFDEFEDFFC1B
:011B2500229D
:0A1B6200C2A6121B17C2A7021B1D2A
:10197C00E0FCA3E0FDCFCDCFCECCCE1206187C0080
:09198C007D0A120618ED2430FF5B
:0A199500D2A6121B17C2A7021B1DE9
:051A3C00EAF0A3EBF04D
:101A4100AE07EEB40104ED148007EEB40209ED24F3
:081A51003F4480FF121B6222DA
:101AF1007F38121B627F0C121B627F06121B627FF2
:041B010001021B6260
:081B9900121A41AF0302199575
:0B1901009000AEEBF0A3EAF0A3E9F0C9
:10190C00121A41E4FD9000AEE0FBA3E0FAA3E0F96B
:10191C008D827583001205C7FF60061219950D8024
:01192C00E4D6
:01192D002297
:0C16BE007F0AEA24FFFDE434FFFC7E00FC
:0E16CA00900041EEF0A3EFF0A3ECF0A3EDF0E2
:1016D800A3E4F0A304F0E4FBEBFFD3900044E09F05
:1016E8007480F8900043E0648098401E900045E0C4
:1016F800FEA3E0FF900041E0FCA3E0FD1206069087
:101708000045EEF0A3EFF00B80CE900045E0FEA37D
:02171800E0FFF0
:01171A0022AC
:031A590090003EBC
:101A5C00121A3CA3E0FAEAD39400400C1216BE9082
:081A6C00003E12197C1A80EE05
:011A7400224F
:10177600121A41C3EA64809480400F7F2B12199598
:10178600900099EAF0A3EBF080127F2D121995C311
:10179600E49BFEE49A900099F0A3CEF0900098E0C6
:1017A600FAEAD39400400C1216BE90009912197CE6
:0317B6001A80EEA8
:0117B900220D
:0317BA0090009DFF
:1017BD00121A3CA3E0FAEAD39400402D7F101216C2
:1017CD00C090009DE0FCA3E0FDCFCDCFCECCCE12DE
:1017DD000618EF540FFEC3940AEE50042430800215
:0917ED002437FF1219951A80CD72
:0117F60022D0
:0317F7009000A2BD
:1017FA00121A3CA3E0FAEAD39400402CEA24FFFD33
:10180A00E434FFFC7F027E001216CA9000A2E0FCBC
:10181A00A3E0FDCFCDCFCECCCE120618EF540124D3
:08182A0030FF1219951A80CE5F
:011832002293
:100E2100E49000B6F07590FFC2932097167F14FEF0
:100E310012000E3097FD7F147E0012000E9000B656
:100E41007401F02096177F147E0012000E3096FD7B
:100E51007F147E0012000E9000B67405F0209517E5
:100E61007F147E0012000E3095FD7F147E0012006B
:100E71000E9000B67409F02094177F147E001200C2
:100E81000E3094FD7F147E0012000E9000B6740D9A
:100E9100F07590FFC2922097177F147E0012000E0A
:100EA1003097FD7F147E0012000E9000B67402F0A0
:100EB1002096177F147E0012000E3096FD7F147E5F
:100EC1000012000E9000B67406F02095177F147E74
:100ED1000012000E3095FD7F147E0012000E90006E
:100EE100B6740AF02094177F147E0012000E30941D
:100EF100FD7F147E0012000E9000B6740EF0759006
:100F0100FFC2912097177F147E0012000E3097FDCB
:100F11007F147E0012000E9000B67403F020961725
:100F21007F147E0012000E3096FD7F147E001200A9
:100F31000E9000B67407F02095177F147E00120002
:100F41000E3095FD7F147E0012000E9000B6740BDA
:100F5100F02094177F147E0012000E3094FD7F1450
:100F61007E0012000E9000B6740FF07590FFC290D3
:100F71002097177F147E0012000E3097FD7F147E9C
:100F81000012000E9000B67404F02096177F147EB4
:100F91000012000E3096FD7F147E0012000E9000AC
:100FA100B67408F02095177F147E0012000E30955C
:100FB100FD7F147E0012000E9000B6740CF0209498
:100FC100177F147E0012000E3094FD7F147E0012F4
:0D0FD100000E9000B67410F09000B6E0FF26
:010FDE0022F0
:0D1B2600121A757FCC121A8F7F44021A8F9D
:10186F00121A757FCC121A8F7FBE121A8F121A009E
:10187F00900002EFF0121A00EFFE900002E0FDED73
:10188F0054FCFFFDAC06EC12024AE4FBFA798078B7
:04189F004102012FD2
:101A7500D2B7C2B77FE3DFFED2B77F1DDFFEA2B7C5
:091A8500E433FE7FE3DFFEAF064F
:011A8E002235
:101B0500C2B77E02DEFEEF24FF92B77E16DEFED25E
:011B1500B718
:011B160022AC
:101AC200C2B77F01DFFED2B77F01DFFEA2B7E433E8
:071AD200FE7F16DFFEAF06E8
:011AD90022EA
:021A8F00AD07A1
:101A9100E4FCA8047401088002C333D8FC5DFF1282
:071AA1001B050CECB408EB7F
:011AA800221B
:101A0000E4FDFC121AC2EF600DA804740108800204
:0D1A1000C333D8FC4DFD0CECB408E8AF0565
:011A1D0022A6
:101747004A00793F065B4F666D7D077F6F4A006FE2
:0A175700BF86DBCFE6EDFD87FFEF54
:10150100EF14B40800505490151675F003A4C58368
:1015110025F0C5837302152E021532021536021508
:101521003A02153E02154602154E021556D2A48006
:101531000ED2A48012D2A48016D2A4801AC2A4D240
:10154100A3D2A28016C2A4D2A3C2A2800EC2A4C2F8
:10155100A3D2A28006C2A4C2A3C2A274792DF5822D
:1015610074003CF583E0F5807F017E0012000EE4FB
:03157100F58022E0
:10157400EF14B40800505490158975F003A4C58382
:1015840025F0C583730215A10215A50215A902153C
:10159400AD0215B10215B90215C10215C9D2A48054
:1015A4000ED2A48012D2A48016D2A4801AC2A4D2CD
:1015B400A3D2A28016C2A4D2A3C2A2800EC2A4C285
:1015C400A3D2A28006C2A4C2A3C2A2746F2DF582C4
:1015D40074003CF583E0F5807F017E0012000EE488
:0315E400F580226D
:091B7F00D288D2A8D2AFD2B22262
:03000300020FDF0A
:100FDF00C0E0C0F0C083C082C0D075D000C000C0D8
:0D0FEF0001C002C003C004C005C006C00759
:100FFC00900032E4F0A3F0A3F0A3F0A3F030B2031E
:10100C0002115E9000337403F0A374E8F020B2294F
:10101C00900033E07002A3E0601F7F017E00121B82
:10102C0057900034E024FFF0900033E034FFF0E000
:10103C007002A3E070D702115E20B20302112E9051
:10104C0000337401F0A374F4F030B229900033E053
:10105C007002A3E0601F7F017E00121B57900034CA
:10106C00E024FFF0900033E034FFF0E07002A3E0E6
:10107C0070D702115E900035E4F0900036E4F090E9
:10108C0000337402F0A37458F020B229900033E0BE
:10109C007002A3E0601F7F017E00121B579000348A
:1010AC00E024FFF0900033E034FFF0E07002A3E0A6
:1010BC0070D702115E900033E4F0A37414F030B2D8
:1010CC00157F0A7E00121B57900032E004F0E0D32B
:1010DC00941440EA807C900035E0FF24AAF582E469
:1010EC003400F583E0C313F0900032E0C394084061
:1010FC000E74AA2FF582E43400F583E04480F0905E
:10110C000032E4F0900036E004F0E0C394085003A1
:10111C0002108B900035E004F0E0C39404500302FD
:10112C0010869000ADE0F4FF9000ACE06F6023906F
:10113C000035E4F0900035E0FFC39404501474AA19
:10114C002FF582E43400F583E4F0900035E004F0F0
:02115C0080E22F
:10115E00D007D006D005D004D003D002D001D000E5
:0B116E00D0D0D082D083D0F0D0E0328F
:0B1B5700EF1FAC0670011E4C70F62260
:101A1E00D3EF9400EE940040147D6E7C00ED1D70AB
:0D1A2E00011CED4C70F7EF1F70E61E80E309
:011A3B002288
:101761005100833F065B4F666D7D077F6F777C3944
:041771005E7971002C
:0B13C7009000A5EBF0A3EAF0A3E9F012
:1013D200E4A3F0ED14A3F09000A8F09000A8E0FFC1
:1013E200C394084003021474EFB40800504D9013E4
:1013F200F7F828287302140F0214130214170214A8
:101402001B02141F02142702142F021437D2A480C5
:101412000ED2A48012D2A48016D2A4801AC2A4D260
:10142200A3D2A28016C2A4D2A3C2A2800EC2A4C218
:10143200A3D2A28006C2A4C2A3C2A29000A9E0FFC6
:101442009000A8E0C39FFFE49400FE9000A5E0FB9B
:10145200A3E0FAA3E0F98F828E831205C7F5807F9D
:10146200647E00121B57E4F5809000A8E004F002AD
:0214720013DD88
:011474002255
:1018A3009000B1EFF0A3ECF0A3EDF0121B887FA042
:1018B30012192E121B4B9000B1E0FF12192E121BAE
:1018C3004B9000B2A3E0FF12192E121B4B021BA177
:0518330090003CEFF005
:10183800121B887FA012192E121B4B90003CE0FF50
:1018480012192E121B4B121B887FA112192E121B64
:101858004B1219E190003DEFF07F01121B6C121B37
:06186800A190003DE0FF2D
:01186E002257
:1015E700E490003CF020B1167F14FE12000E30B1DB
:1015F700FD7F147E0012000E90003C7401F020B0B5
:10160700177F147E0012000E30B0FD7F147E00128B
:10161700000E90003C7402F020B2177F147E001277
:10162700000E30B2FD7F147E0012000E90003C7455
:1016370003F020B3177F147E0012000E30B3FD7F36
:10164700147E0012000E90003C7404F090003CE001
:01165700FF93
:01165800226F
:091B8800D2A0D2A1C2A0C2A12288
:071BA100C2A0D2A1D2A022D4
:02192E00AD0703
:10193000E4FB7E007480A803088006CEA2E713CEE5
:1019400013D8F8FFEDF582EF558224FF92A0D2A1C3
:07195000C2A10BEBB408DBA0
:01195700226D
:1019E100E4FFD2A0FED2A130A00DA8067480088029
:0E19F10002C313D8FC4FFFC2A10EEEB408E7EC
:0119FF0022C5
:0A1B6C00EF24FF92A0D2A1C2A12233
:0B1B4B00D2A0D2A1A2A0E433FFC2A1EF
:011B5600226C
:0218D300AD075F
:1018D500E4FB7E007480A803088006CEA2E713CE41
:1018E50013D8F8FFEDF582EF558224FF92B4D2B6F6
:0B18F500C2B60BEBB408DBD2B5C2B5E5
:0119000022C4
:051BAE00C2B6C2B52221
:10199F00AA07AF051218D3AF02A8077480088002F8
:1019AF00C313D8FCF4F5807F017E0012000E758002
:0219BF00FF2205
:10002600EC4D6011E8497017ED33EC3304600DE4D4
:10003600FCFFFEFD22E933E8330470F80202EF12FA
:1000460002BA58046009E4CC2481500628500902FB
:1000560002F92840030202F6C0E0EB4A7044B98078
:1000660006D0E0FB0202E5EF4E701CBD8008EBFFF8
:10007600EAFEE9FD80EBE98DF0A4FEE5F002010F52
:10008600E9CDF9EAFEEBFFEF89F0A4FCE5F0CE89B5
:10009600F0A42EFFE435F0CD89F0A42DFEE435F072
:1000A6008067EF4E7005BD80D780C3EF8BF0A4ACA0
:1000B600F0EE8BF0A42CFCE435F0F8EF8AF0A42CDB
:1000C600E5F038FCE433CB8DF0A42CFCE5F03BF8EE
:1000D600EE8AF0A42CFCE5F038F8E433CF89F0A4DE
:1000E6002CFCE5F038CF3400CE89F0A42FFFE5F0E4
:1000F6003EFEE433C98DF0A42EFEE5F039CD8AF03C
:10010600A42FFFE5F03EFEE43DFD33D0E0FB5007B3
:100116000BBB000F0202F9EC2CFCEF33FFEE33FEB3
:06012600ED33FD0202D1E1
:10012C000202F9EC5D046005E8590470030202EF69
:10013C001202BA580460F6EC4860F2EC7004FDFE52
:10014C00FF22C860DB2481C85009C39860025006A6
:10015C000202F69850CAF582E9294B4A7005AB8227
:10016C000202E575F0007C1A7880C3EF9BEE9AEDE5
:10017C0099400DC3EF9BFFEE9AFEED99FDE842F01E
:10018C00DC23ACF0D0E0FFD0E0FED0E0FDAB822071
:10019C00E7101BEB60BAEC2CFCEF33FFEE33FEEDFB
:1001AC0033FD0202D1E803F830E705C0F075F0002A
:1001BC00EF2FFFEE33FEED33FD40B830E7C280AADF
:1001CC0074F8CC6480CCC86480C8F58204604FC3DA
:1001DC00EB9FF5F0EA9E42F0E99D42F0E89C45F079
:1001EC00603C501DE5825FFFE582D313CB5BCBF403
:1001FC002B5582FB50280ABA002409B9002008802C
:10020C001DE5825BFBE582D313CF5FCFF4C3132FC5
:10021C005582FF50090EBE00050DBD00010CC3EB4D
:10022C009FF5F0EA9E42F0E99D42F0E89C45F060B3
:09023C0007CC4820E701B3EC22D5
:1002450075F020800E75F010800575F0087D007E34
:10025500007F003392D530D5031206A3EC3340104E
:10026500EF33FFEE33FEED33FDEC33FCD5F0ED223D
:0E027500E5F0247EA2D513CC92E7CDCEFF2279
:10028300EDD2E7CD33EC3392D524814006E4FFFE73
:10029300FDFC22FCE4CFCECDCC24E0501174FF80D2
:1002A300EDC3CC13CCCD13CDCE13CECF13CF04706F
:0702B300F030D5DE0206A3C6
:10070300E5082405F582E43400F583E0050822902A
:100713000002300703900005E475F0011206BD02E4
:1007230005AE2000E97F2ED2008018EF540F2490ED
:10073300D43440D4FF30040BEF24BFB41A00500369
:100743002461FFE50960021509050CE50C7002053B
:100753000B30070E900002E475F0011206BDEF02A4
:1007630005F40200067403D2078003E4C207F50808
:100773009000021206D4E4F509F50BF50CE50960C7
:10078300077F2012074680F5750AFFC201C200C227
:1007930002C203C205C206C208120712FF700D305F
:1007A30007057F00120757AF0CAE0B22B4255FC2BB
:1007B300D5C204120712FF24D0B40A00501A75F0F0
:1007C3000A780930D50508B6FF0106C6A426F62027
:1007D300D5047002D20380D924CFB41A00EF500499
:1007E300C2E5D204020A49D20180C6D20080C0D237
:1007F3000280BCD2D580BAD20580B47F20120746CE
:100803002002077401B5090040F1120703FF120724
:1008130046020780D208D2068095120703FB12070F
:1008230003FA120703F94A4B700679477A0B7BFFE9
:1008330020022EE509602A7E008E82758300120550
:10084300C760060EEE650A70F0C2D5EBC0E0EAC0E1
:10085300E0E9C0E0EE120AAAD0E0F9D0E0FAD0E075
:10086300FB1205AEFF60AAEBC0E0EAC0E0E9C0E01E
:10087300120746D0E02401F9D0E03400FAD0E0FBBF
:10088300E50A0460DCD50AD98087D20280A2120A65
:100893008C60F7E50A700104120304A90A600DE5F0
:1008A3000A600914F50A120B34EF60F3EA30E70229
:1008B300F404C3995079EAF4250A0430E701E40407
:1008C300F50A800D120A8C60C1EA050A250A120393
:1008D30004EA900031F030E701E4250A04D50A0464
:1008E30020050114120AAAE4C0E0120B349000316F
:1008F300E0601320E70714F012072E802204F0D0E3
:10090300E014C0E07F0012072EE50A6007120725F6
:10091300150A800B300503120725D0E0020780D0AB
:10092300E00480C4120A8C609EE50A04120304905A
:100933000031EAF0E50A2005026001042404120AEA
:01094300AA09
:1009440074FF04C0E0120B3412072EE50A200502DE
:100954006003120725D0E0B50AE87F4512073890F6
:100964000031E07F2B30E7047F2DF404C0E0120750
:1009740046D0E075F00A84C0F012072FD0E01207C9
:100984002F020780791080027908C206C208800805
:10099400D2D5790A8004790AC2D5E50A047002F531
:1009A4000AE4FAFDFEFF120703FC7B082001131280
:1009B4000703FD7B1030000A120703FE120703FF32
:1009C4007B20EC3382D592D55013C3E43000069FCC
:1009D400FFE49EFEE42001039DFDE49CFCE4CBF8CF
:1009E400C201EC700CCFCECDCCE824F8F870F380C3
:1009F40017C3EF33FFEE33FEED33FDEC33FCEB3383
:100A0400FB994002FB0FD8E9EB300105F8D0E0C4B4
:100A140048B201C0E00AEC4D4E4F78207B0070C212
:100A2400EAB50A0040BCC0E0120AACD0F0D0E02025
:100A34000104C4C0E0C4B201C0F012072FD0F0D545
:100A4400F0EB0207801206DD081D5309885807EEF3
:100A54004C07EA42098C4F0994440994490803431A
:100A6400099A5508C7460927450891470B67500757
:100A7400F22D07F62E08192B07FA230817200B501E
:100A84002A07B24800000811E50AB4FF03750A06F4
:100A9400120703FC120703FD120703FE120703FFEC
:100AA40090002A020341790AA2D5200314300509D3
:100AB400B910020404B9080104A2D52006025001A9
:100AC400042002689202B509005034C0E07F20304F
:100AD40003197F30A20272067205500F120B03C273
:100AE40002C206C205C2087F30800F300503E9C088
:100AF400E0120746300503D0E0F9D0E0B509CC3068
:100B040005177F30B9100C1207467F583004077F51
:100B1400788003B908031207463002057F2D0207C7
:100B2400467F202008F87F2B2006F322920280CFF4
:100B34007F00B40700500B242AF582E43400F583C7
:100B4400E0FF22286E756C6C2900D2011207033075
:100B540001F8C201780930D50108F60207B22D5018
:100B64004349581207032403B405004001E4900BE1
:100B74006293120737743A120737D20375090402D5
:020B84000988DE
:1002BA00E9D2E7C933E833F892D5EDD2E7CD33EC8A
:0702CA0033FC5002B2D52203
:1002D100EC30E7100FBF000C0EBE00080DBD00048E
:1002E1000BEB6014A2D5EB13FCED92E7FD2274FF3A
:1002F100FCFDFEFF22E480F8A2D574FF13FC7D8093
:03030100E480EFA6
:10030400F920E73624F950037907E4F42402FBE5E5
:1003140082158270021583DBF6E024FB501BE96032
:1003240014E4F0E582158270021583E004F0B40A47
:0D03340008E4F0D9EE7401F00A22C2D522CF
:10034100ED33EC3392D5FA602AB4FF33EDC2E77B8B
:10035100FF60067A037966E4227A03796F20D50477
:100361007A03796A224E614E002B494E46002D498F
:100371004E4600E47A08F0A3DAFC7B00740722C041
:1003810083C082ECC0E0EDC0E0EEC0E0EFC0E0EA87
:1003910075F010A4CAABF075F04DA42BFBE435F059
:1003A100FCEA2410FAEB34C5FBEC34D9FCEDC2E7CE
:1003B100FF75F056A4F42411C5F0F434C58FF0A4F0
:1003C1002AE5F03BE43CF020E71412056ED0E0FF93
:1003D100D0E0FED0E0FDD0E0FC12012F8014F40447
:1003E10012056ED0E0FFD0E0FED0E0FDD0E0FC12BF
:1003F1000026D082D083E0FAEDD2E7CD33EC33246E
:1004010082FBE4C3CF33CFCE33CECD33CD33DBF359
:100411007B0775F00A846004F0A31B0AE5F0F0A3E2
:100421008FF0740AA4FFACF08EF0740AA42CFEAC19
:10043100F050010C8DF0740AA42CFDE435F0F0A30A
:05044100DBDE74072260
:100446000202EFE86480F8E933E83360110460F0F3
:10045600ED33EC337009E8FCE9FDEAFEEBFF22041C
:1004660060DED3EB9FEA9EE99DE8C2E78CF0C2F717
:1004760095F0400CE8CCF8E9CDF9EACEFAEBCFFBE3
:100486001202BA85D0F05804700320D5B3E8047080
:10049600075002B2D50202F992D5EC0460F7E4CC1B
:1004A600C0E0C398F8603B94186008400DD0E0FBAC
:1004B6000202D1E4FBFAC9FC8028E830E406E4C96C
:1004C600FBE4CAFCE830E305E4C9CACBFCE8540700
:1004D6006010F8C3E913F9EA13FAEB13FBEC13FC0B
:1004E600D8F130F52FC3E49CFCEF9BFFEE9AFEEDAE
:1004F60099FDD0E0FBEF4E4D4C701222DB03020259
:10050600F6EC2CFCEF33FFEE33FEED33FDED30E77A
:10051600EB0202D1EF2BFFEE3AFEED39FDD0E0FB08
:1005260050130BBB00030202F9ED13FDEE13FEEFB1
:0805360013FFEC13FC0202D1DB
:10053E003F8000004120000042C80000447A0000C5
:10054E00461C400047C35000497424004B18968047
:10055E004CBEBC205A0E1BCA6753C21C749DC5AE3E
:10056E00FB60065407601C232312059CEB54386075
:10057E0009120588120597120026ECF8EDF9EEFA2D
:10058E00EFCB22EB12059780F1543803241C900513
:10059E003EFE93FC0EEE93FD0EEE930ECE93FF22D7
:0300000002147572
:0C147500787FE4F6D8FD7581210214BCDC
:1005AE00BB010689828A83E0225002E722BBFE024B
:0905BE00E32289828A83E493227E
:1005C700BB010CE58229F582E5833AF583E02250E9
:1005D70006E92582F8E622BBFE06E92582F8E22233
:0D05E700E58229F582E5833AF583E493224D
:1005F400BB010689828A83F0225002F722BBFE01E6
:02060400F322DF
:10060600EF8DF0A4A8F0CF8CF0A428CE8DF0A42E08
:02061600FE22C2
:10061800BC000BBE0029EF8DF084FFADF022E4CCC6
:10062800F875F008EF2FFFEE33FEEC33FCEE9DEC8F
:10063800984005FCEE9DFE0FD5F0E9E4CEFD22EDD5
:10064800F8F5F0EE8420D21CFEADF075F008EF2F1F
:10065800FFED33FD4007985006D5F0F222C398FD10
:050668000FD5F0EA22AD
:10066D00C2D5EC30E709B2D5E4C39DFDE49CFCEEA8
:10067D0030E715B2D5E4C39FFFE49EFE120618C302
:10068D00E49DFDE49CFC800312061830D507C3E4FD
:06069D009FFFE49EFE2217
:0E06A300C3E49FFFE49EFEE49DFDE49CFC2268
:0C06B100ECF0A3EDF0A3EEF0A3EFF022BC
:1006BD00F8E0FBA3A3E0F925F0F0E58215827002C6
:0706CD001583E0FA38F0226A
:0906D400EBF0A3EAF0A3E9F02227
:1006DD00D083D082F8E4937012740193700DA3A3AC
:1006ED0093F8740193F5828883E4737402936860C0
:0606FD00EFA3A3A380DFC0
:10148100021179E493A3F8E493A34003F68001F2F7
:1014910008DFF48029E493A3F85407240CC8C3336C
:1014A100C4540F4420C8834004F456800146F6DF3B
:1014B100E4800B010204081020408090171BE47E99
:1014C100019360BCA3FF543F30E509541FFEE49330
:1014D100A360010ECF54C025E060A840B8E493A3F7
:1014E100FAE493A3F8E493A3C8C582C8CAC583CA22
:1014F100F0A3C8C582C8CAC583CADFE9DEE780BEDA
:011775000073
:00000001FF
